S00C0000545749502E73726563D4
S113000033C000004EC000004CC000004AC00000D5
S113001048C0000046C0000044C000000C948009A1
S113002040C000003EC000003CC000003AC00000D8
S113003038C0000036C0000034C0000032C00000E8
S113004030C000002EC000000C94D30D0C94FA0DA7
S113005028C0000026C0000024C0000022C0000008
S11300600C948D0B1EC0000011241FBECFEFD8E0EE
S1130070DEBFCDBF13E0A0E0B1E0E0E4F3E202C0F4
S113008005900D92A63BB107D9F725E0A6EBB3E0A6
S113009001C01D92A636B207E1F70E946E0E0C94C1
S11300A09E11AECF0F931F93CF93CFB7F8940E94B6
S11300B0730C823018F4CFBF80E02AC007EC13E041
S11300C021E030E045E051E068E280E00E94780CF5
S11300D006EC13E026E030E04FEB53E068E281E009
S11300E00E94780C07EC13E021E030E044E051E09A
S11300F068E280E00E94780C06EC13E021E030E036
S113010045EC53E068E281E00E94780CCFBF81E0C7
S1130110CF911F910F9108957F928F929F92AF92EA
S1130120BF92CF92DF92EF92FF920F931F93CF93E0
S1130130DF93EC017FB6F8940EEB13E0F8016181D4
S11301407281072E000C880B990B0E940D1020E081
S113015030E040E85DE30E9414114B015C01F801BA
S113016063817481072E000C880B990B0E940D107B
S113017020E030E040E85DE30E9414116B017C0153
S1130180F80165817681072E000C880B990B0E947B
S11301900D1020E030E040E85DE30E941411F80106
S11301A027817FBE88829982AA82BB82CC82DD822B
S11301B0EE82FF82688779878A879B87922F929540
S11301C093709C87922F9695969593709D87922F06
S11301D093709E87822F82958695869583708F87EC
S11301E0CE01DF91CF911F910F91FF90EF90DF909F
S11301F0CF90BF90AF909F908F907F900895CF92B3
S1130200DF92FF920F931F93CF93DF9300D01F923F
S1130210CDB7DEB78B836B01F42E8E010E5F1F4FBB
S113022021E030E0AE014D5F5F4F68E280E00E9464
S1130230780C8823E9F08A818330E9F38A81882362
S113024011F06A8111C02F2D30E08E010F5F1F4F16
S1130250A60168E281E00E94780C89818330E9F389
S11302608981882349F0698170E080E090E007C0CB
S11302706FEF7FEFCB0103C060E070E0CB010F9024
S11302800F900F90DF91CF911F910F91FF90DF900E
S1130290CF900895AF92BF92CF92DF92EF92FF92E8
S11302A00F931F93CF93DF931F92CDB7DEB75C01FB
S11302B06B017A01890141E0BE016F5F7F4F85E3E5
S11302C09EDF8981982F9295969596959370F50166
S11302D09083982F92959370F6019083982F96951A
S11302E096959370F70190838370F80180830F9043
S11302F0DF91CF911F910F91FF90EF90DF90CF90FE
S1130300BF90AF900895CF92DF92EF92FF921F9328
S1130310CF93DF93CDB7DEB766970FB6F894DEBF01
S11303200FBECDBFCE0101967C0115E541E0B701BA
S1130330812F65DFF70180819FEFE91AF90A0E9496
S1130340410E1F5F1B3691F766960FB6F894DEBF19
S11303500FBECDBFDF91CF911F91FF90EF90DF9043
S1130360CF9008950F931F93CF93DF9300D01F92E4
S1130370CDB7DEB789836A838E010D5F1F4F22E0FC
S113038030E0AE014F5F5F4F68E280E00E94780C7E
S11303908B818330E9F36B8170E080E090E00F9013
S11303A00F900F90DF91CF911F910F9108951F939C
S11303B0CF93DF931F92CDB7DEB7182F2FEF83EDC6
S11303C090E3215080409040E1F700C0000041E0FC
S11303D0BE016F5F7F4F80E012DF8981803A31F088
S11303E011112FC06FEF7FEFCB012FC060E08DE3C1
S11303F0B9DF2FE788E391E0215080409040E1F796
S113040000C0000060E08EE3ADDF2FE788E391E0F9
S1130410215080409040E1F700C0000060E087E098
S1130420A1DF68E08DE39EDF2FE788E391E02150B0
S113043080409040E1F700C0000060E070E0CB0134
S113044004C082E00E94CA0CFFCF0F90DF91CF91CD
S11304501F910895CF93DF9300D000D0CDB7DEB7BE
S11304606091BA037091BB038091BC039091BD036A
S113047044D6653671058105910508F461C034D60A
S11304806093BA037093BB038093BC039093BD0342
S11304909E012F5F3F4FAE014E5F5F4FBE016D5F08
S11304A07F4FCE010496F6DE8C819091030189176B
S11304B071F01F928F9387E091E09F938F9304D400
S11304C08C81809303010F900F900F900F908B817C
S11304D090910201891771F01F928F9383E191E04B
S11304E09F938F93F1D38B81809302010F900F9090
S11304F00F900F908A8190910101891771F01F92DA
S11305008F9380E291E09F938F93DED38A818093CF
S113051001010F900F900F900F908981909100012D
S1130520891771F01F928F938CE291E09F938F93C0
S1130530CBD38981809300010F900F900F900F907F
S11305400F900F900F900F90DF91CF910895CF935C
S1130550DF93CDB7DEB764970FB6F894DEBF0FBE56
S1130560CDBF6091B6037091B7038091B8039091A9
S1130570B903C3D56D3271408105910508F47BC080
S1130580B3D56093B6037093B7038093B803909385
S1130590B90388DD8091C6038330E1F38091C603FB
S11305A0811165C0CE010196B7DD88E391E09F9388
S11305B08F938AD38C818F938B818F938A818F932E
S11305C089818F9387E491E09F938F937DD388856E
S11305D08F938F818F938E818F938D818F938EE4F0
S11305E091E09F938F9370D38C858F938B858F939A
S11305F08A858F9389858F9385E591E09F938F9367
S113060063D39E012F5E3F4FAE014E5E5F4FBE012E
S11306106D5E7F4FCE0144963DDE8C891F928F9391
S11306208CE591E09F938F934FD38B891F928F9387
S113063085E691E09F938F9347D38A891F928F9386
S11306408EE691E09F938F933FD30FB6F894DEBF6D
S11306500FBECDBF89891F928F9387E791E09F9347
S11306608F9332D30F900F900F900F9004C080E8B7
S113067091E00E94590E64960FB6F894DEBF0FBE47
S1130680CDBFDF91CF9108950F931F93CF93DF9345
S113069000D0CDB7DEB78BE991E09F938F9314D34D
S11306A00F900F900E94730C8823E1F386EB91E086
S11306B09F938F9309D319828E010E5F1F4F21E000
S11306C030E0AE014F5F5F4F68E280E00E94780C3B
S11306D0182F0F900F90882341F08BEC91E09F939B
S11306E08F93F2D20F900F9008C080EE91E09F9309
S11306F08F93EAD20F900F9068C08A818330E9F318
S113070088EF91E09F938F93DFD28A810F900F90AF
S1130710811121C08AE192E09F938F93D5D21982EF
S11307208E010E5F1F4F21E030E0AE014F5F5F4F3F
S113073068E281E00E94780C0F900F908A818330E8
S1130740E9F388EF91E09F938F93BED28A810F9053
S11307500F908823A9F08A81813019F48EEF91E0FB
S113076005C08A81823039F489E092E09F938F93A7
S1130770ABD20F900F908A8111E0811126C024C062
S113078080E392E09F938F939FD28DE392E09F93B7
S11307908F939AD289810F900F900F900F90803A87
S11307A041F485E992E09F938F938ED20F900F903E
S11307B00BC01F928F938DE492E09F938F9384D20A
S11307C00F900F900F900F9010E0812F0F900F90CB
S11307D0DF91CF911F910F910895CF93DF9300D0B4
S11307E0CDB7DEB786E592E09F938F936DD21A82E0
S11307F041E0BE016E5F7F4F80E001DD6983898146
S11308000F900F90882331F089811F928F938AE68D
S113081092E010C08A81803A49F485E992E09F937E
S11308208F9352D20F900F9081E00CC01F928F9340
S113083088E792E09F938F9347D20F900F900F9089
S11308400F9080E00F900F90DF91CF910895CF9398
S1130850DF931F92CDB7DEB785E892E09F938F9325
S113086033D280E0A4DD698389810F900F908823BF
S113087021F082E00E94CA0CFFCF80E992E09F93AE
S11308808F9322D281E00F900F900F90DF91CF9140
S11308900895BF92CF92DF92EF92FF920F931F932E
S11308A0CF93DF931F92CDB7DEB760E08DE35ADDBF
S11308B02FEF86E791E0215080409040E1F700C09F
S11308C0000000E010E0BB24BA9483EAE82E82E042
S11308D0F82E99E9C92E92E0D92EB982602F85E6C7
S11308E041DD41E0BE016F5F7F4F85E688DC898191
S11308F0282F30E02017310739F41F930F931F93EB
S11309000F93DF92CF9206C01F930F931F928F9382
S1130910FF92EF92D9D10F900F900F900F900F90FC
S11309200F902FEF85EA9EE0215080409040E1F740
S113093000C000000F5F1F4F0D30110571F66CE011
S11309408DE310DD81E00F90DF91CF911F910F9126
S1130950FF90EF90DF90CF90BF900895CF93DF93F7
S11309601F92CDB7DEB741E0BE016F5F7F4F80E0DD
S113097046DC81E00F90DF91CF910895FB01DC010B
S113098020E030E0415051092417350799F09D913A
S1130990992319F08191811108C0FB01E20FF31F23
S11309A081E02081291308C008C0981305C02F5F77
S11309B03F4FEACF81E0089580E00895CF92DF921F
S11309C0EF92FF920F931F93CF93DF93CDB7DEB7D0
S11309D02A970FB6F894DEBF0FBECDBF8C010097E7
S11309E089F480E32A960FB6F894DEBF0FBECDBF1C
S11309F0DF91CF911F910F91FF90EF90DF90CF90F7
S1130A000C94410E97FF06C08DE20E94410E119591
S1130A1001951109CE0101967C01FC018AE0C82EE2
S1130A20D12C9F012E193F09C801B6010E947711EC
S1130A30805D81938B01672BA1F789010F5F1F4FA5
S1130A400E0D1F1DE016F10631F0F80182918F01A1
S1130A500E94410EF7CF2A960FB6F894DEBF0FBE60
S1130A60CDBFDF91CF911F910F91FF90EF90DF9059
S1130A70CF9008951092E6030895CF93DF93CDB7F6
S1130A80DEB7C455D1090FB6F894DEBF0FBECDBF93
S1130A908091C8038037E1F48091C9038D3309F054
S1130AA095C08091E603863008F4DBC06091CA03E8
S1130AB07091CB038091CC039091CD030E940D10D3
S1130AC020E030E04AE754E40E94720FB7D21DC020
S1130AD08936F1F48091C9038D3309F077C0809190
S1130AE0E603863008F4BDC06091CA037091CB035D
S1130AF08091CC039091CD030E940D1020E030E052
S1130B004AE754E40E94720FA5D28DEA92E0A7C08E
S1130B108436E1F48091C9038D3309F057C0809184
S1130B20E603863008F49DC06091CA037091CB033C
S1130B308091CC039091CD030E940D1020E030E011
S1130B404AE754E40E94720F91D2DFCF8136E1F478
S1130B508091C9038D3309F039C08091E603863052
S1130B6008F47FC06091CA037091CB038091CC03D9
S1130B709091CD030E940D1020E030E04AE754E448
S1130B800E94720F7FD2C1CF8437E1F48091C903F0
S1130B908D33E1F48091E603833008F462C08091E0
S1130BA0CA03813311F470DD5CC0823311F415DEA5
S1130BB058C0833311F44BDE54C0843309F051C060
S1130BC068DE4FC0833611F49EDB4BC04FEF5FEFFE
S1130BD060EB72E088EC93E0D1DE882321F081E0C1
S1130BE0809306013EC04FEF5FEF6AEB72E088EC42
S1130BF093E0C4DE882329F01092060185EC92E08C
S1130C002EC044E050E066ED72E088EC93E0B6DE7E
S1130C10882319F086ED92E022C045E050E068ECAC
S1130C2073E08BED92E0AADE8823B9F0CE018B96B7
S1130C3094D28AE2FE01BB96DE01119601900D92D8
S1130C408A95E1F74AE250E0BE016F5F7F4F80E092
S1130C5090E014D581EE92E002C080EF92E00E9411
S1130C60590ECC5ADF4F0FB6F894DEBF0FBECDBF7E
S1130C70DF91CF910895CF93DF930E946A0E1816E7
S1130C801906FCF4C091E603D0E00E94640EC85338
S1130C90DC4F88838091E603E82FF0E0E853FC4FB3
S1130CA090819A3029F41082E8DE1092E60309C09C
S1130CB08E3118F01092E603E0CF8F5F8093E60345
S1130CC0DCCFDF91CF9108952F923F924F925F92A4
S1130CD06F927F928F929F92AF92BF92CF92DF9248
S1130CE0EF92FF920F931F93CF93DF93CDB7DEB7AD
S1130CF02A970FB6F894DEBF0FBECDBFFE017F96D4
S1130D00819191917F0100E010E0FE0131965F0135
S1130D10EF8DF8A1E00FF11F8081882309F495C0BD
S1130D20853209F08EC08181863609F449C01CF4ED
S1130D30843631F083C0893619F0883751F07EC08B
S1130D406701F2E0CF0ED11CF7018081918136DE7C
S1130D5035C06701F2E0CF0ED11CF701208131814B
S1130D602115310519F480E38CD728C0F50181E001
S1130D7090E0422F4F70B9016F7077276A30710588
S1130D8014F4405D01C0495C408344E036952795E6
S1130D904A95E1F7AC014F5F5F4F3196211531055C
S1130DA011F0CA01E6CF7501E80EF91EAE14BF04B6
S1130DB029F0F70182917F0164D7F8CF76013EC014
S1130DC01701F4E02F0E311CF701C080D180E280BE
S1130DD0F38020E030E0A901C701B6010E946E0F44
S1130DE087FF04C088248A94982C03C088248394A1
S1130DF0912CE894F7F8C701B6010E9448102B0122
S1130E003C010E94DA0F869E9001879E300D969ECB
S1130E10300D1124C901D2DD8EE233D7A301920132
S1130E20C701B601F6D720E030E048EC52E40E9456
S1130E3014110E94DA0FCB01C1DD71010F5F1F4F46
S1130E4001C01FD70F5F1F4F63CF2A960FB6F894C8
S1130E50DEBF0FBECDBFDF91CF911F910F91FF90E9
S1130E60EF90DF90CF90BF90AF909F908F907F9046
S1130E706F905F904F903F902F9008951F93CF9362
S1130E80DF938DEF92E09F938F931EDF1F92DBE73A
S1130E90DF9385E193E09F938F9316DFCFEFCF939A
S1130EA0CF931F92DF9380E393E09F938F930CDFA4
S1130EB0CF9383EF8F9386E593E09F938F9304DF23
S1130EC084E48F931AE91F93DEE4DF93C8E9CF9398
S1130ED080E793E09F938F93F7DE84EC8F931F93C7
S1130EE0DF93CF938AE893E09F938F93EDDE8DB7E2
S1130EF09EB74C960FB6F8949EBF0FBE8DBFDF9180
S1130F00CF911F910895CF93DF93CDB7DEB7AA9702
S1130F100FB6F894DEBF0FBECDBF1092E703109258
S1130F20010410920204109203041092040410921B
S1130F3005041092060410920704109208041092FB
S1130F40FD031092FE031092FF031092000481E04F
S1130F508093E80383E08093B0008CE98093B3002E
S1130F601092B2008FE08093B10080917000826093
S1130F70809370004AE250E0BE016F5F7F4F80E0D3
S1130F8090E098D389819A81AB81BC81853A954A56
S1130F90A54AB54A81F58D819E81AF81B88580933C
S1130FA0F1039093F203A093F303B093F4038985C0
S1130FB09A85AB85BC858093F5039093F603A09343
S1130FC0F703B093F8038D859E85AF85B889809328
S1130FD0F9039093FA03A093FB03B093FC0389896C
S1130FE09A89AB89BC898093FD039093FE03A093F7
S1130FF0FF03B0930004AA960FB6F894DEBF0FBEA9
S1131000CDBFDF91CF910895EF92FF920F931F937D
S1131010AFB7F894E7EEF3E0628773878487958728
S113102026873787408B518BE28AF38A048B158B92
S1131030AFBF1F910F91FF90EF9008952FB7F894D1
S11310406093F1037093F2038093F3039093F4039A
S11310502FBF08952FB7F8946093F5037093F603A8
S11310608093F7039093F8032FBF08952FB7F89454
S11310706093F9037093FA038093FB039093FC034A
S11310802FBF08952FB7F8946093FD037093FE0368
S11310908093FF03909300042FBF0895CF9381E0C2
S11310A08093E8039091E703911112C0CFB7F894AD
S11310B08093E7030E94520080E090E060D580E0D6
S11310C090E067D583E085BD8AB180668AB9CFBFD9
S11310D0CF9108959FB7F89415BC8AB18F798AB9D6
S11310E01092E7039FBF0895609101047091020478
S11310F080910304909104040895CF92DF92EF92BB
S1131100FF920F931F930091010410910204209108
S1131110030430910404601771078207930748F4AD
S113112068017901C61AD70AE80AF90AC701B601A3
S113113004C0601B710B820B930B1F910F91FF90E6
S1131140EF90DF90CF9008956091E9037091EA03E6
S11311508091EB039091EC032DC70F931F93CF93D2
S1131160DF93CDB7DEB7AA970FB6F894DEBF0FBEF4
S1131170CDBF8C0185EA95EADC0189839A83AB8330
S1131180BC83E7EEF3E082859385A485B5858D83E2
S11311909E83AF83B88786859785A089B18989871F
S11311A09A87AB87BC8782899389A489B5898D87FF
S11311B09E87AF87B88B86899789A08DB18D898BDF
S11311C09A8BAB8BBC8B46E1BE016B5E7F4F85E592
S11311D016D88AE2FE013196D80101900D928A95C3
S11311E0E1F7C801AA960FB6F894DEBF0FBECDBFD3
S11311F0DF91CF911F910F910895EF92FF921F936A
S1131200CF93DF93CDB7DEB7AA970FB6F894DEBFBE
S11312100FBECDBF4AE250E0BE016F5F7F4F80E05A
S113122090E048D289819A81AB81BC81853A954A04
S1131230A54AB54A09F058C08D819E81AF81B88511
S11312408093F1039093F203A093F303B093F40318
S113125089859A85AB85BC858093F5039093F603C5
S1131260A093F703B093F8038D859E85AF85B88965
S11312708093F9039093FA03A093FB03B093FC03C8
S113128089899A89AB89BC898093FD039093FE0375
S1131290A093FF03B093000460E08DE363D88FEF65
S11312A096E7E1E081509040E040E1F700C00000A3
S11312B060E087E057D87E01F5E1EF0EF11C15E5FB
S11312C0F70161917F01812F4DD81F5F1B36C1F754
S11312D068E08DE347D8FFEF26E781E0F150204036
S11312E08040E1F700C00000AA960FB6F894DEBF74
S11312F00FBECDBFDF91CF911F91FF90EF90089566
S11313001F920F920FB60F9211244F925F926F9219
S11313107F928F929F92AF92BF92CF92DF92EF9281
S1131320FF920F931F932F933F934F935F936F936A
S11313307F938F939F93AF93BF93EF93FF93CF9339
S1131340DF93CDB7DEB76897DEBFCDBF80910104D0
S113135090910204A0910304B09104040A96A11D83
S1131360B11D8093010490930204A0930304B093ED
S1131370040472D38091E703882309F43EC1CE01AB
S113138001960E948C0089849A84AB84BC841D8558
S11313900E856091FD037091FE038091FF0390918F
S11313A00004A501940136D56B017C010E94520012
S11313B089819A81AB81BC818093580590935905AA
S11313C0A0935A05B0935B058D819E81AF81B8854A
S11313D080935D0590935E05A0935F05B0936005CF
S11313E08092620590926305A0926405B0926505AF
S11313F01093610500935C05033011F4133041F040
S11314001092B1007894F9DEF8948FE08093B100E3
S113141020E030E04CE052E4C701B6019F7700D7EA
S1131420181614F41092E8038091E80381110BC09C
S113143080E090E0A4D380E090E0ABD315BC8AB107
S11314408F798AB9DAC04090F1035090F20360902A
S1131450F3037090F4038090F9039090FA03A09042
S1131460FB03B090FC036091E9037091EA0380915F
S1131470EB039091EC032091F5033091F603409136
S1131480F7035091F803298B3A8B4B8B5C8B20919B
S1131490ED033091EE034091EF035091F0032D8B57
S11314A03E8B4F8B588FA7019601B3D4A5019401AD
S11314B0BBD64B015C01A3019201C701B601B4D6AE
S11314C09B01AC01C501B401A5D44B015C012D897C
S11314D03E894F89588D69897A898B899C89A4D6DC
S11314E09B01AC01C501B40195D44B015C01C092D0
S11314F0E903D092EA03E092EB03F092EC0320912B
S1131500ED033091EE034091EF035091F003C701D6
S1131510B60180D46093ED037093EE038093EF03E0
S11315209093F0036091ED037091EE038091EF03CB
S11315309091F00320E030E048EC52E471D61816A4
S11315402CF480E090E0A8ECB2E413C06091ED03C9
S11315507091EE038091EF039091F00320E030E06E
S113156048EC52ECBBD487FF0CC080E090E0A8ECC0
S1131570B2EC8093ED039093EE03A093EF03B0934A
S1131580F00320E030E044EB52E4C501B4019F775E
S1131590A5D487FF07C084B18C7F84B9812C912C9A
S11315A0540122C084B1836084B920E030E04FE765
S11315B053E4C501B40134D6181684F020E030E0B9
S11315C04FE753ECC501B40189D487FF0DC0812CCA
S11315D0912C9FE7A92E93ECB92E06C0812C912C57
S11315E08FE7A82E83E4B82EC501B401E3D46B01C0
S11315F07C01CB01C4D2C601CCD268960FB6F89454
S1131600DEBF0FBECDBFDF91CF91FF91EF91BF91B0
S1131610AF919F918F917F916F915F914F913F9186
S11316202F911F910F91FF90EF90DF90CF90BF907B
S1131630AF909F908F907F906F905F904F900F909E
S11316400FBE0F901F9018959C019FB7F894F999BD
S1131650FECF32BD21BD81E08FBB80B59FBF089511
S11316609C019FB7F894F999FECF32BD21BD60BDAE
S113167084E08FBB82E08FBB9FBF0895EF92FF92FF
S11316800F931F93CF93DF93EB018B01040F151F6F
S11316907C01C017D10739F06991C701E1DF8FEFF1
S11316A0E81AF80AF6CFDF91CF911F910F91FF90BE
S11316B0EF900895EF92FF920F931F93CF93DF93D0
S11316C08B01040F151FEB017C01E61AF70AC01702
S11316D0D10731F0C7018C0F9D1FB6DF8993F7CF77
S11316E0DF91CF911F910F91FF90EF90089585E9BD
S11316F08093BC00809142048F5F87708093420482
S1131700809144048150809344048091440488234C
S113171019F085EA8093BC0008951F920F920FB6CA
S11317200F9211242F933F934F935F936F937F9363
S11317308F939F93AF93BF93EF93FF938091440450
S113174018160CF0AFC0E09142042E2F30E087E071
S1131750E89FF0011124E75FFB4F8681882309F499
S113176053C08091B900887F803491F128F4883087
S113177059F0803149F099C08035A1F0883591F055
S1131780883409F461C091C01092410487E0829FBB
S1131790F001839FF00D1124E75FFB4F8281880FD6
S11317A0816070C087E0829FF001839FF00D112457
S11317B0E75FFB4F0190F081E02D8091410491E0BF
S11317C0980F909341049091BB00E80FF11D908312
S11317D09091410487E0829FF001839FF00D1124D2
S11317E0E75FFB4F8381981708F050C08091410454
S11317F0238190E0019630E0821793070CF044C0F7
S113180085EC8093BC0051C08091B900887F8831F9
S113181001F128F4883059F0803149F046C088320B
S1131820C1F08033C1F1803209F03FC00DC0109285
S1131830410487E0829FF001839FF00D1124E75F4C
S1131840FB4F8281880F1EC00480F581E02D81E06A
S113185026C087E0829FF001839FF00D1124E75F8B
S1131860FB4F938180914104891780F40190F081AA
S1131870E02D8091410491E0980F90934104E80F8A
S1131880F11D80818093BB0085E8BBCF0480F58186
S1131890E02D108205C00480F581E02D82E0808374
S11318A026DF03C084EA93E004D2FF91EF91BF9155
S11318B0AF919F918F917F916F915F914F913F91E4
S11318C02F910F900FBE0F901F901895E9E0F4E050
S11318D011AE12AE13AE10AE83E08093B80081E077
S11318E08093B90008959091440488E0891B089579
S11318F00F931F933FB7F89490914404983018F0D5
S11319003FBF80E044C0E091430497E09E9FF00114
S11319101124E75FFB4F51834083E09143049E9F72
S1131920F0011124E75FFB4F6283E09143049E9F23
S1131930F0011124E75FFB4F2383E09143049E9F52
S1131940F0011124E75FFB4F8683E09143049E9FDF
S1131950F0011124E75FFB4F1583048383E0F80152
S11319608083809143048F5F8770809343048091C8
S113197044048F5F8093440480914404813029F4AB
S11319801092410485EA8093BC003FBF81E01F911F
S11319900F9108950F931F93259A91E0909351040A
S11319A0813061F048F0823071F0833069F582E370
S11319B090E0A0E0B0E018C02D9A26C084EF91E03A
S11319C0A0E0B0E011C082E390E0A0E0B0E080933A
S11319D0450490934604A0934704B093480484EFCD
S11319E091E0A0E0B0E008C08093450490934604E1
S11319F0A0934704B09348048093490490934A0405
S1131A00A0934B04B0934C0480915104882351F06B
S1131A106BDB0091450410914604209147043091FA
S1131A20480409C061DB0091490410914A042091E3
S1131A304B0430914C04DC01CB01801B910BA20BB5
S1131A40B30B80934D0490934E04A0934F04B09332
S1131A5050041F910F9108950F931F9320915104E7
S1131A6060914D0470914E0480914F049091500404
S1131A70222391F042DB0091450410914604209109
S1131A804704309148040617170728073907F8F464
S1131A9010925104259812C030DB00914904109132
S1131AA04A0420914B0430914C0406171707280769
S1131AB0390768F481E080935104259A15DB60931B
S1131AC04D0470934E0480934F04909350041F91DF
S1131AD00F910895009741F0FC01EF57FF4F1082DA
S1131AE031961082329710820895CF93DF939C0130
S1131AF0009799F0FC01E058FF4F808187FD0DC0ED
S1131B00D901AE57BF4F9C91E901C90FD11D68831C
S1131B109F5F9F779C938F5F8083DF91CF91089520
S1131B20CF93DF93AC010097A9F0FC01E058FF4F7D
S1131B309081992381F0DA01AF57BF4F2C91EA01CC
S1131B40C20FD11D88812F5F2F772C9391509083E2
S1131B50982F01C09FEF892FDF91CF91089515BC75
S1131B608AB18F798AB983EA84BD16BC82E387BDC2
S1131B7088BD10926E0084B1836084B908951816EC
S1131B8019061CF487BD289A0895819587BD289865
S1131B900895181619061CF488BD2998089581958E
S1131BA088BD299A08951F920F920FB60F9211249F
S1131BB02F933F934F935F936F937F938F939F9351
S1131BC0AF93BF93EF93FF936091C60082E594E0D7
S1131BD08CDFFF91EF91BF91AF919F918F917F9196
S1131BE06F915F914F913F912F910F900FBE0F9086
S1131BF01F9018951F920F920FB60F9211242F93D6
S1131C003F934F935F936F937F938F939F93AF9380
S1131C10BF93EF93FF9380915505882331F085EDB1
S1131C2094E07EDF8093C60005C08091C1008F7D63
S1131C308093C100FF91EF91BF91AF919F918F91DC
S1131C407F916F915F914F913F912F910F900FBEB4
S1131C500F901F90189586E08093C2001092C500E3
S1131C6089E18093C400E1ECF0E0808180688083A6
S1131C7080818861808382E594E02CDF85ED94E0A7
S1131C8029CFCF93CFB7F8949091550597FF05C00E
S1131C90789490E99A95F1F7F6CF682F85ED94E062
S1131CA024DF8091C10080628093C100CFBFCF91B7
S1131CB00895CF93DF93EC018991882311F0E1DF3C
S1131CC0FBCFDF91CF910895F89482E594E028DF6B
S1131CD0789408958091D20490E00895F7DDBBDFF5
S1131CE03EDF0E943A050FD9E12CF12C00E111E40A
S1131CF020E030E040E450E460E070E08CE592E401
S1131D0083D966E676E686E690ECBCD9789475DAF3
S1131D1081E00E94D701C2D9279881E03BDEE4D953
S1131D204B015C0198E3C92E91E0D92E27E4E22E01
S1131D3021E0F22E0EE411E0C5E5D1E035E6632E94
S1131D4031E0732E4EE6442E41E0542E0E943B06B1
S1131D501F9903C081E01EDEA1D98091060188236A
S1131D60A9F3C501B401C9D9653F71408105910545
S1131D7068F3BAD94B015C01DF92CF920E946406EA
S1131D8080915B058F9380915A058F9380915905BB
S1131D908F93809158058F93FF92EF920E9464066F
S1131DA0809160058F9380915F058F9380915E058C
S1131DB08F9380915D058F931F930F930E94640608
S1131DC0809165058F93809164058F93809163055D
S1131DD08F93809162058F93DF93CF930E94640663
S1131DE0809161051F928F937F926F920E94640687
S1131DF080915C051F928F935F924F920E946406BC
S1131E008DB79EB74C960FB6F8949EBF0FBE8DBF8C
S1131E109DCF5058BB27AA270ED0B1C1A2D130F014
S1131E20A7D120F031F49F3F11F41EF497C10EF4B2
S1131E30E095E7FB64C1E92FB3D180F3BA176207D9
S1131E4073078407950718F071F49EF5E2C10EF448
S1131E50E0950B2EBA2FA02D0B01B90190010C01B6
S1131E60CA01A0011124FF27591B99F0593F50F4CE
S1131E70503E68F11A16F040A22F232F342F442726
S1131E80585FF3CF469537952795A795F04053951E
S1131E90C9F77EF41F16BA0B620B730B840BBAF0EE
S1131EA09150A1F0FF0FBB1F661F771F881FC2F759
S1131EB00EC0BA0F621F731F841F48F4879577956D
S1131EC06795B795F7959E3F08F0B3CF9395880F24
S1131ED008F09927EE0F979587950895ECD008F4AC
S1131EE081E008950CD04BC143D140F03AD130F099
S1131EF021F45F3F19F003C151118CC12FC150D19E
S1131F0098F39923C9F35523B1F3951B550BBB27BC
S1131F10AA2762177307840738F09F5F5F4F220F69
S1131F20331F441FAA1FA9F333D00E2E3AF0E0E862
S1131F3030D091505040E695001CCAF729D0FE2FAE
S1131F4027D0660F771F881FBB1F26173707480740
S1131F50AB07B0E809F0BB0B802DBF01FF279358F6
S1131F605F4F2AF09E3F510568F0C9C053C15F3FDF
S1131F70ECF3983EDCF3869577956795B795F795DE
S1131F809F5FC9F7880F911D9695879597F90895D6
S1131F90E1E0660F771F881FBB1F62177307840772
S1131FA0BA0720F0621B730B840BBA0BEE1F88F781
S1131FB0E095089504D06894B1112CC10895F8D027
S1131FC088F09F5790F0B92F9927B751A0F0D1F01E
S1131FD0660F771F881F991F1AF0BA95C9F712C0A8
S1131FE0B13081F016D1B1E0089513C1672F782F75
S1131FF08827B85F39F0B93FCCF386957795679514
S1132000B395D9F73EF490958095709561957F4F7F
S11320108F4F9F4F0895E89409C097FB3EF4909525
S11320208095709561957F4F8F4F9F4F9923A9F0AD
S1132030F92F96E9BB279395F6958795779567953C
S1132040B795F111F8CFFAF4BB0F11F460FF1BC080
S11320506F5F7F4F8F4F9F4F16C0882311F096E913
S113206011C0772321F09EE8872F762F05C06623C1
S113207071F096E8862F70E060E02AF09A95660F7A
S1132080771F881FDAF7880F9695879597F9089533
S1132090A9D080F09F3740F491110EF0BBC060E0EE
S11320A070E080E89FEB089526F41B16611D711DF6
S11320B0811D2BC045C0990F0008550FAA0BE0E8FD
S11320C0FEEF16161706E807F907C0F012161306F6
S11320D0E407F50798F0621B730B840B950B39F436
S11320E00A2661F0232B242B252B21F408950A269C
S11320F009F4A140A6958FEF811D811D089597F9DC
S11321009F6780E870E060E00895882371F4772386
S113211021F09850872B762F07C0662311F4992756
S11321200DC09051862B70E060E02AF09A95660FFE
S1132130771F881FDAF7880F9695879597F9089582
S11321409F3F31F0915020F4879577956795B79527
S1132150880F911D9695879597F908959FEF80ECC8
S1132160089500240A9416161706180609060895F9
S113217000240A9412161306140605060895092E5F
S11321800394000C11F4882352F0BB0F40F4BF2BCE
S113219011F460FF04C06F5F7F4F8F4F9F4F08950E
S11321A057FD9058440F551F59F05F3F71F0479504
S11321B0880F97FB991F61F09F3F79F087950895E9
S11321C0121613061406551FF2CF4695F1DF08C008
S11321D0161617061806991FF1CF86957105610525
S11321E008940895E5DFA0F0BEE7B91788F4BB278B
S11321F09F3860F41616B11D672F782F8827985FD3
S1132200F7CF869577956795B11D93959639C8F361
S11322100895E894BB2766277727CB0197F908959B
S11322204ADF08F48FEF08950BD0A9CF9ADF28F086
S11322309FDF18F0952309F062CF90CF1124EACFE5
S1132240AFDFA0F3959FD1F3950F50E0551F629F28
S1132250F001729FBB27F00DB11D639FAA27F00DFB
S1132260B11DAA1F649F6627B00DA11D661F829F22
S11322702227B00DA11D621F739FB00DA11D621F07
S1132280839FA00D611D221F749F3327A00D611D24
S1132290231F849F600D211D822F762F6A2F112406
S11322A09F5750408AF0E1F088234AF0EE0FFF1F59
S11322B0BB1F661F771F881F91505040A9F79E3F90
S11322C0510570F01CCFA6CF5F3FECF3983EDCF3D2
S11322D0869577956795B795F795E7959F5FC1F7CD
S11322E0FE2B880F911D9695879597F9089597FB76
S11322F0072E16F4009406D077FD08D00BD007FC07
S113230005D03EF4909581959F4F08957095619501
S11323107F4F0895AA1BBB1B51E107C0AA1FBB1F17
S1132320A617B70710F0A61BB70B881F991F5A955D
S1132330A9F780959095BC01CD010895F894FFCF3D
S113234064646464351A0163616C207379733D2598
S1132350640A0063616C206779726F3D25640A002A
S113236063616C206163633D25640A0063616C20D2
S11323706D61673D25640A003D3D3D3D3D3D3D3D6C
S11323803D3D3D3D0A0D00783D25660A0D00793D31
S113239025660A0D007A3D25660A0D00635F733DCC
S11323A025640A0D00635F673D25640A0D00635FC1
S11323B0613D25640A0D00635F6D3D25640A0D00CF
S11323C0424E4F3A204661696C656420746F2072F6
S11323D065616420646174610D0A003D3D20424ED4
S11323E04F303535205465737420313A205265617D
S11323F064203D3D0A0057726974696E67207265F6
S11324006720616464726573730A005461736B209E
S1132410616464656420746F2071756575650A0074
S11324204661696C656420746F2061646420746F14
S11324302071756575650A00444F4E450A0049329E
S1132440433A204E41434B0A004932433A20575203
S1132450495445204E41434B0A0052656164696EFC
S113246067207265672076616C7565202E2E2000CA
S113247052572053554343455353210A004368653B
S1132480636B2056616C7565202E2E2000464149F1
S11324904C3D25780A00203D3D20424E4F3A2054C1
S11324A06573742032203D3D0A0049324320657231
S11324B0726F723D25640A004641494C2076616C76
S11324C03D25780A00424E4F3A20696E69740A002D
S11324D0424E4F3A204F4B0A002564203D3D2025B3
S11324E0640A00256420213D2025640A006F6B00E6
S11324F073747265616D5F6F6E0073747265616D84
S11325005F6F66660073747265616D696E67206FD4
S11325106666210D0A006563686F0063616C696219
S11325200043616C6962207361766564210D0A0061
S1132530496E76616C696420636D6421005465732F
S11325407420313A20416E6120617265206D65729C
S113255065210D0A005465737420323A20416E617E
S113256020617265202564206D657265210D0A0065
S11325705465737420333A20416E61206172652082
S11325802564206D6572652053492025642070659B
S11325907265210D0A005465737420343A20416E2B
S11325A06120617265202578206D6572650D0A00D1
S11325B05465737420353A20416E61206172652040
S11325C02566206D6572650D0A00546573742036A6
S11325D03A20416E6120617265202566206D657226
S11325E0650D0A004932435F4552523A6E6F2074BA
S10925F061736B210A0077
S9030000FC
