:1000000033C000004EC000004CC000004AC00000D9
:1000100048C0000046C0000044C000006EC7000099
:1000200040C000003EC000003CC000003AC00000DC
:1000300038C0000036C0000034C0000032C00000EC
:1000400030C000002EC000000C947A0D0C94A10D5D
:1000500028C0000026C0000024C0000022C000000C
:100060000C94340B1EC0000011241FBECFEFD8E04B
:10007000DEBFCDBF13E0A0E0B1E0E4EAF1E202C0F0
:1000800005900D92A63BB107D9F725E0A6EBB3E0AA
:1000900001C01D92AE35B207E1F70E94150E0C9417
:1000A000D010AECF0F931F93CF93DF93EC0107ECEB
:1000B00013E021E030E045E051E068E280E00E949A
:1000C0001F0C8823A1F38E0126E030E04FEB53E0B4
:1000D00068E281E00E941F0C8823A9F3DF91CF9191
:1000E0001F910F9108950F931F9307EC13E021E0E8
:1000F00030E044E051E068E280E00E941F0C882379
:10010000A1F306EC13E021E030E045EC53E068E2B7
:1001100081E00E941F0C8823A1F31F910F91089585
:100120007F928F929F92AF92BF92CF92DF92EF9287
:10013000FF920F931F93CF93DF93EC017FB6F89458
:100140000EEB13E0F80161817281072E000C880B21
:10015000990B0E943F0F20E030E040E85DE30E94F1
:1001600046104B015C01F80163817481072E000C7D
:10017000880B990B0E943F0F20E030E040E85DE3E0
:100180000E9446106B017C01F80165817681072E83
:10019000000C880B990B0E943F0F20E030E040E8F4
:1001A0005DE30E9446107FBE88829982AA82BB824C
:1001B000CC82DD82EE82FF82688779878A879B877F
:1001C000CE01DF91CF911F910F91FF90EF90DF90C3
:1001D000CF90BF90AF909F908F907F9008958FB7F2
:1001E000F8949091C5038FBF692F62956370792F42
:1001F000769576957370892F8370929596959695DE
:1002000093700895CF92DF92FF920F931F93CF9335
:10021000DF9300D01F92CDB7DEB78B836B01F42E36
:100220008E010E5F1F4F21E030E0AE014D5F5F4F4A
:1002300068E280E00E941F0C8823E9F08A81833005
:10024000E9F38A81882311F06A8111C02F2D30E0F3
:100250008E010F5F1F4FA60168E281E00E941F0C14
:1002600089818330E9F38981882349F0698170E0CD
:1002700080E090E007C06FEF7FEFCB0103C060E04C
:1002800070E0CB010F900F900F90DF91CF911F91F5
:100290000F91FF90DF90CF900895AF92BF92CF92D1
:1002A000DF92EF92FF920F931F93CF93DF931F92F2
:1002B000CDB7DEB75C016B017A01890141E0BE0177
:1002C0006F5F7F4F85E39EDF8981982F929596958A
:1002D00096959370F5019083982F92959370F601FF
:1002E0009083982F969596959370F70190838370DD
:1002F000F80180830F90DF91CF911F910F91FF90B4
:10030000EF90DF90CF90BF90AF900895CF92DF92A3
:10031000EF92FF921F93CF93DF93CDB7DEB766972F
:100320000FB6F894DEBF0FBECDBFCE0101967C01A3
:1003300015E541E0B701812F65DFF70180819FEF6F
:10034000E91AF90A0E94E80D1F5F1B3691F76696BD
:100350000FB6F894DEBF0FBECDBFDF91CF911F91D6
:10036000FF90EF90DF90CF9008950F931F93CF935E
:10037000DF9300D01F92CDB7DEB789836A838E01E9
:100380000D5F1F4F22E030E0AE014F5F5F4F68E22C
:1003900080E00E941F0C8B818330E9F36B8170E059
:1003A00080E090E00F900F900F90DF91CF911F9120
:1003B0000F9108951F93CF93DF931F92CDB7DEB7B0
:1003C000182F2FEF83ED90E3215080409040E1F70C
:1003D00000C0000041E0BE016F5F7F4F80E012DF90
:1003E0008981803A31F011112FC06FEF7FEFCB017F
:1003F0002FC060E08DE3B9DF2FE788E391E0215063
:1004000080409040E1F700C0000060E08EE3ADDF87
:100410002FE788E391E0215080409040E1F700C051
:10042000000060E087E0A1DF68E08DE39EDF2FE75A
:1004300088E391E0215080409040E1F700C0000047
:1004400060E070E0CB0104C082E00E94710CFFCF3D
:100450000F90DF91CF911F910895CF93DF9300D03C
:1004600000D0CDB7DEB76091BA037091BB03809125
:10047000BC039091BD031AD66536710581059105BF
:1004800008F461C00AD66093BA037093BB038093EB
:10049000BC039093BD039E012F5F3F4FAE014E5FA3
:1004A0005F4FBE016D5F7F4FCE010496F6DE8C81FB
:1004B00090910301891771F01F928F9386E091E06C
:1004C0009F938F93FDD38C81809303010F900F90A6
:1004D0000F900F908B8190910201891771F01F92FC
:1004E0008F9382E191E09F938F93EAD38B818093E6
:1004F00002010F900F900F900F908A81909101014F
:10050000891771F01F928F938FE191E09F938F93E2
:10051000D7D38A81809301010F900F900F900F9095
:10052000898190910001891771F01F928F938BE25E
:1005300091E09F938F93C4D38981809300010F90A2
:100540000F900F900F900F900F900F900F90DF91E2
:10055000CF910895CF93DF93CDB7DEB760970FB6F5
:10056000F894DEBF0FBECDBF6091B6037091B703A4
:100570008091B8039091B90399D56D32714081058E
:10058000910508F47DC089D56093B6037093B703D5
:100590008093B8039093B90386EC93E083DD809158
:1005A000C6038330E1F38091C603811165C0CE019B
:1005B0000196B6DD87E391E09F938F9381D38C8181
:1005C0008F938B818F938A818F9389818F9386E418
:1005D00091E09F938F9374D388858F938F818F93AE
:1005E0008E818F938D818F938DE491E09F938F9374
:1005F00067D38C858F938B858F938A858F9389851D
:100600008F9384E591E09F938F935AD39E01235F4C
:100610003F4FAE01425F5F4FBE01615F7F4FCE0132
:1006200040963BDE88891F928F938BE591E09F93E4
:100630008F9346D38F851F928F9384E691E09F938B
:100640008F933ED38E851F928F938DE691E09F937B
:100650008F9336D30FB6F894DEBF0FBECDBF8D8516
:100660001F928F9386E791E09F938F9329D30F90EA
:100670000F900F900F9004C08FE791E00E94000E42
:1006800060960FB6F894DEBF0FBECDBFDF91CF915D
:1006900008950F931F93CF93DF9300D0CDB7DEB7AC
:1006A0008AE991E09F938F930BD30F900F900E9454
:1006B0001A0C8823E1F385EB91E09F938F9300D38D
:1006C00019828E010E5F1F4F21E030E0AE014F5FB7
:1006D0005F4F68E280E00E941F0C182F0F900F9070
:1006E000882341F08AEC91E09F938F93E9D20F9099
:1006F0000F9008C08FED91E09F938F93E1D20F9000
:100700000F9068C08A818330E9F387EF91E09F936F
:100710008F93D6D28A810F900F90811121C089E1E9
:1007200092E09F938F93CCD219828E010E5F1F4F60
:1007300021E030E0AE014F5F5F4F68E281E00E9450
:100740001F0C0F900F908A818330E9F387EF91E0BF
:100750009F938F93B5D28A810F900F908823A9F031
:100760008A81813019F48DEF91E005C08A81823051
:1007700039F488E092E09F938F93A2D20F900F906C
:100780008A8111E0811126C024C08FE292E09F93FC
:100790008F9396D28CE392E09F938F9391D289812D
:1007A0000F900F900F900F90803A41F484E992E0FF
:1007B0009F938F9385D20F900F900BC01F928F93B2
:1007C0008CE492E09F938F937BD20F900F900F90C9
:1007D0000F9010E0812F0F900F90DF91CF911F911C
:1007E0000F910895CF93DF9300D0CDB7DEB785E5A5
:1007F00092E09F938F9364D21A8241E0BE016E5FB4
:100800007F4F80E0FFDC698389810F900F90882300
:1008100031F089811F928F9389E692E010C08A811E
:10082000803A49F484E992E09F938F9349D20F90E4
:100830000F9081E00CC01F928F9387E792E09F9307
:100840008F933ED20F900F900F900F9080E00F90FB
:100850000F90DF91CF910895CF93DF931F92CDB783
:10086000DEB784E892E09F938F932AD280E0A2DDE6
:10087000698389810F900F90882321F082E00E9484
:10088000710CFFCF8FE892E09F938F9319D281E094
:100890000F900F900F90DF91CF910895BF92CF925C
:1008A000DF92EF92FF920F931F93CF93DF931F92EC
:1008B000CDB7DEB760E08DE358DD2FEF86E791E03E
:1008C000215080409040E1F700C0000000E010E0BF
:1008D000BB24BA9482EAE82E82E0F82E98E9C92E69
:1008E00092E0D92EB982602F85E63FDD41E0BE015E
:1008F0006F5F7F4F85E686DC8981282F30E02017E7
:10090000310739F41F930F931F930F93DF92CF9208
:1009100006C01F930F931F928F93FF92EF92D0D137
:100920000F900F900F900F900F900F902FEF85EA80
:100930009EE0215080409040E1F700C000000F5F32
:100940001F4F0D30110571F66CE08DE30EDD81E077
:100950000F90DF91CF911F910F91FF90EF90DF905B
:10096000CF90BF900895CF93DF931F92CDB7DEB79E
:1009700041E0BE016F5F7F4F80E044DC81E00F907B
:10098000DF91CF910895FB01DC0120E030E0415080
:1009900051092417350799F09D91992319F08191F8
:1009A000811108C0FB01E20FF31F81E020812913B0
:1009B00008C008C0981305C02F5F3F4FEACF81E001
:1009C000089580E00895CF92DF92EF92FF920F9307
:1009D0001F93CF93DF93CDB7DEB72A970FB6F89466
:1009E000DEBF0FBECDBF8C01009789F480E32A964D
:1009F0000FB6F894DEBF0FBECDBFDF91CF911F9130
:100A00000F91FF90EF90DF90CF900C94E80D97FF3F
:100A100006C08DE20E94E80D119501951109CE01E5
:100A200001967C01FC018AE0C82ED12C9F012E1971
:100A30003F09C801B6010E94A910805D81938B0116
:100A4000672BA1F789010F5F1F4F0E0D1F1DE016C9
:100A5000F10631F0F80182918F010E94E80DF7CF85
:100A60002A960FB6F894DEBF0FBECDBFDF91CF91AF
:100A70001F910F91FF90EF90DF90CF90089510920B
:100A8000E6030895CF93DF93CDB7DEB7C455D10900
:100A90000FB6F894DEBF0FBECDBF8091C80380377C
:100AA000E1F48091C9038D3309F095C08091E6038C
:100AB000863008F4D4C06091CA037091CB03809152
:100AC000CC039091CD030E943F0F20E030E04AE735
:100AD00054E40E94A40E7DD21DC08936F1F48091A9
:100AE000C9038D3309F077C08091E603863008F49E
:100AF000B6C06091CA037091CB038091CC039091F2
:100B0000CD030E943F0F20E030E04AE754E40E940A
:100B1000A40E6BD28CEA92E0A1C08436E1F48091FD
:100B2000C9038D3309F057C08091E603863008F47D
:100B300096C06091CA037091CB038091CC039091D1
:100B4000CD030E943F0F20E030E04AE754E40E94CA
:100B5000A40E57D2DFCF8136E1F48091C9038D33E3
:100B600009F039C08091E603863008F478C06091BE
:100B7000CA037091CB038091CC039091CD030E9466
:100B80003F0F20E030E04AE754E40E94A40E45D233
:100B9000C1CF8437E1F48091C9038D33E1F48091B2
:100BA000E603833008F45BC08091CA03813311F4FB
:100BB00070DD55C0823311F415DE51C0833311F45A
:100BC0004BDE4DC0843309F04AC068DE48C083362E
:100BD00011F49CDB44C04FEF5FEF6FEA72E088ECEA
:100BE00093E0D1DE81113BC04FEF5FEF69EB72E024
:100BF00088EC93E0C8DE882319F084EC92E02EC0E4
:100C000044E050E065ED72E088EC93E0BCDE8823C0
:100C100019F085ED92E022C045E050E068EC73E009
:100C20008AED92E0B0DE8823B9F0CE018B96DBD35B
:100C30008AE2FE01BB96DE01119601900D928A9523
:100C4000E1F74AE250E0BE016F5F7F4F80E090E045
:100C5000BCD480EE92E002C08FEE92E0D1D7CC5AA5
:100C6000DF4F0FB6F894DEBF0FBECDBFDF91CF913F
:100C70000895CF93DF93D5D718161906F4F4C091D1
:100C8000E603D0E0C8D7C853DC4F88838091E603E1
:100C9000E82FF0E0E853FC4F90819A3029F410825D
:100CA000F1DE1092E60309C08E3118F01092E603CF
:100CB000E2CF8F5F8093E603DECFDF91CF9108957F
:100CC0002F923F924F925F926F927F928F929F925C
:100CD000AF92BF92CF92DF92EF92FF920F931F934A
:100CE000CF93DF93CDB7DEB72A970FB6F894DEBF68
:100CF0000FBECDBFFE017F96819191917F0100E0F3
:100D000010E0FE0131965F01EF8DF8A1E00FF11FB9
:100D10008081882309F493C0853209F08CC08181D9
:100D2000863609F449C01CF4843631F081C0893616
:100D300019F0883751F07CC06701F2E0CF0ED11C6A
:100D4000F701808191813FDE35C06701F2E0CF0E6F
:100D5000D11CF701208131812115310519F480E37F
:100D600037D728C0F50181E090E0422F4F70B901DC
:100D70006F7077276A30710514F4405D01C0495CDB
:100D8000408344E0369527954A95E1F7AC014F5FE3
:100D90005F4F31962115310511F0CA01E6CF75017B
:100DA000E80EF91EAE14BF0429F0F70182917F010D
:100DB0000FD7F8CF76013CC01701F4E02F0E311C9D
:100DC000F701C080D180E280F38020E030E0A9010B
:100DD000C701B601B5D787FF04C088248A94982C30
:100DE00003C088248394912CE894F7F8C701B601D6
:100DF0000E947A0F2B013C010E940C0F869E9001ED
:100E0000879E300D969E300D1124C901DCDD8EE2E7
:100E1000DFD6A3019201C701B6012DD720E030E053
:100E200048EC52E40E944610F7D7CB01CCDD7101AB
:100E30000F5F1F4F01C0CCD60F5F1F4F65CF2A96A3
:100E40000FB6F894DEBF0FBECDBFDF91CF911F91DB
:100E50000F91FF90EF90DF90CF90BF90AF909F9059
:100E60008F907F906F905F904F903F902F9008955C
:100E70001F93CF93DF938CEF92E09F938F9320DFAC
:100E80001F92DBE7DF9384E193E09F938F9318DF5A
:100E9000CFEFCF93CF931F92DF938FE293E09F9397
:100EA0008F930EDFCF9383EF8F9385E593E09F932E
:100EB0008F9306DF84E48F931AE91F93DEE4DF93B8
:100EC000C8E9CF938FE693E09F938F93F9DE84EC8C
:100ED0008F931F93DF93CF9389E893E09F938F9332
:100EE000EFDE8DB79EB74C960FB6F8949EBF0FBE3F
:100EF0008DBFDF91CF911F9108951F920F920FB672
:100F00000F9211242F933F934F935F936F937F938F
:100F10008F939F93AF93BF93EF93FF93EBEEF3E029
:100F2000828D938DA48DB58D0196A11DB11D828FEB
:100F3000938FA48FB58F37D5FF91EF91BF91AF916C
:100F40009F918F917F916F915F914F913F912F91E1
:100F50000F900FBE0F901F901895EBEEF3E0128EDE
:100F6000138E148E158E168E178E10A211A2168A4D
:100F7000178A108E118E118281E082A383A383E0F1
:100F80008093B0008FE08093B3001092B200809302
:100F9000B100E0E7F0E08081826080830895EF9205
:100FA000FF920F931F93AFB7F894EBEEF3E06287D5
:100FB00073878487958726873787408B518BE28A92
:100FC000F38A048B158BAFBF1F910F91FF90EF90A9
:100FD00008952FB7F8946093F5037093F603809308
:100FE000F7039093F8032FBF08952FB7F8946093F9
:100FF000F9037093FA038093FB039093FC032FBFD4
:1010000008952FB7F8946093FD037093FE038093C7
:10101000FF03909300042FBF08952FB7F8946093B7
:1010200001047093020480930304909304042FBF7F
:101030000895CF93CFB7F8948091EC0381111CC031
:1010400080910D048330E1F380910E048330E1F34D
:101050008DE094E027D88EE094E045D880E090E0E1
:1010600035D580E090E03CD583E085BD8AB18066CF
:101070008AB981E08093EC03CFBFCF910895CF93DD
:10108000CFB7F89415BC8AB18F798AB91092EC0366
:1010900082E027D4CFBFCF9108956091050470916D
:1010A000060480910704909108040895CF92DF927E
:1010B000EF92FF920F931F93009105041091060485
:1010C0002091070430910804601771078207930785
:1010D00048F468017901C61AD70AE80AF90AC70173
:1010E000B60104C0601B710B820B930B1F910F9113
:1010F000FF90EF90DF90CF9008954F925F926F92A4
:101100007F928F929F92AF92BF92CF92DF92EF9297
:10111000FF92CF93DF93CDB7DEB764970FB6F89405
:10112000DEBF0FBECDBF6091E7037091E8038091F1
:10113000E9039091EA03BADF6B30710581059105EF
:1011400008F433C18091050490910604A09107042E
:10115000B09108048093E7039093E803A093E90318
:10116000B093EA0380910D048330E1F3CE01019640
:101170000E94900060910104709102048091030428
:101180009091040429853A854B855C8575D56B0162
:101190007C018DE094E00E945200C701B6019F7768
:1011A00020E030E04CE052E46DD718160CF467DF15
:1011B0008091EC0381110BC080E090E087D480E047
:1011C00090E08ED415BC8AB18F798AB9EEC0409078
:1011D000F5035090F6036090F7037090F803809049
:1011E000FD039090FE03A090FF03B0900004609177
:1011F000ED037091EE038091EF039091F003209145
:10120000F9033091FA034091FB035091FC032D87C1
:101210003E874F87588B2091F1033091F203409124
:10122000F3035091F403298B3A8B4B8B5C8BA70112
:10123000960121D5A501940129D74B015C01A30199
:101240009201C701B60122D79B01AC01C501B401CF
:1012500013D54B015C0129893A894B895C896D85DD
:101260007E858F85988912D79B01AC01C501B40199
:1012700003D54B015C01C092ED03D092EE03E092E6
:10128000EF03F092F0032091F1033091F2034091CB
:10129000F3035091F403C701B601EED46093F10358
:1012A0007093F2038093F3039093F4036091F1033E
:1012B0007091F2038091F3039091F40320E030E009
:1012C00048EC52E4DFD618162CF480E090E0A8EC4D
:1012D000B2E413C06091F1037091F2038091F303C3
:1012E0009091F40320E030E048EC52EC29D587FFE0
:1012F0000CC080E090E0A8ECB2EC8093F1039093F6
:10130000F203A093F303B093F40320E030E044EB46
:1013100052E4C501B4019F7713D587FF07C084B19C
:101320008C7F84B9812C912C540122C084B18360BC
:1013300084B920E030E04FE753E4C501B401A2D600
:10134000181684F020E030E04FE753ECC501B401FB
:10135000F7D487FF0DC0812C912C9FE7A92E93EC29
:10136000B92E06C0812C912C8FE7A82E83E4B82ECD
:10137000C501B40151D56B017C01CB01A7D3C601D6
:1013800064960FB6F894DEBF0FBECDBFDF91CF914C
:10139000FF90EF90DF90CF90BF90AF909F908F9095
:1013A0007F906F905F904F909BC364960FB6F894B8
:1013B000DEBF0FBECDBFDF91CF91FF90EF90DF90EA
:1013C000CF90BF90AF909F908F907F906F905F90E5
:1013D0004F9008956091ED037091EE038091EF03BB
:1013E0009091F00319C50F931F93CF93DF93CDB75F
:1013F000DEB7AA970FB6F894DEBF0FBECDBF8C0143
:1014000085EA95EADC0189839A83AB83BC83EBEEA2
:10141000F3E082859385A485B5858D839E83AF8314
:10142000B88786859785A089B18989879A87AB8790
:10143000BC8782899389A489B5898D879E87AF8768
:10144000B88B86899789A08DB18D898B9A8BAB8B50
:10145000BC8B46E1BE016B5E7F4F85E50E940201B9
:101460008AE2FE013196D80101900D928A95E1F74A
:10147000C801AA960FB6F894DEBF0FBECDBFDF91AC
:10148000CF911F910F910895EF92FF921F93CF93E9
:10149000DF93CDB7DEB7AA970FB6F894DEBF0FBEC5
:1014A000CDBF4AE250E0BE016F5F7F4F80E090E029
:1014B000A8D089819A81AB81BC81853A954AA54A99
:1014C000B54A09F05CC08D819E81AF81B88580935B
:1014D000F5039093F603A093F703B093F80389857F
:1014E0009A85AB85BC858093F9039093FA03A0930A
:1014F000FB03B093FC038D859E85AF85B8898093EF
:10150000FD039093FE03A093FF03B0930004898929
:101510009A89AB89BC898093010490930204A093BB
:101520000304B093040460E08DE30E94B5018FEFE3
:1015300096E7E1E081509040E040E1F700C0000014
:1015400060E087E00E94B5017E01F5E1EF0EF11C3D
:1015500015E5F70161917F01812F0E94B5011F5FA1
:101560001B36B9F768E08DE30E94B501FFEF26E76F
:1015700081E0F15020408040E1F700C00000AA96D1
:101580000FB6F894DEBF0FBECDBFDF91CF911F9194
:10159000FF90EF9008959C019FB7F894F999FECFC2
:1015A00032BD21BD81E08FBB80B59FBF08959C01F6
:1015B0009FB7F894F999FECF32BD21BD60BD84E09C
:1015C0008FBB82E08FBB9FBF0895EF92FF920F9376
:1015D0001F93CF93DF93EB018B01040F151F7C0149
:1015E000C017D10739F06991C701E1DF8FEFE81A21
:1015F000F80AF6CFDF91CF911F910F91FF90EF90F6
:101600000895EF92FF920F931F93CF93DF938B0177
:10161000040F151FEB017C01E61AF70AC017D1076A
:1016200031F0C7018C0F9D1FB6DF8993F7CFDF9193
:10163000CF911F910F91FF90EF90089585E98093CE
:10164000BC00809148048F5F87708093480480912C
:101650004A04815080934A0480914A04882319F0F7
:1016600085EA8093BC0008951F920F920FB60F92E7
:1016700011242F933F934F935F936F937F938F9397
:101680009F93AF93BF93EF93FF9380914A041816F3
:101690000CF0AFC0E09148042E2F30E087E0E89FC7
:1016A000F0011124E15FFB4F8681882309F453C0C8
:1016B0008091B900887F803491F128F4883059F006
:1016C000803149F099C08035A1F0883591F0883497
:1016D00009F461C091C01092470487E0829FF00135
:1016E000839FF00D1124E15FFB4F8281880F8160A1
:1016F00070C087E0829FF001839FF00D1124E15FAD
:10170000FB4F0190F081E02D8091470491E0980F0C
:10171000909347049091BB00E80FF11D9083909146
:10172000470487E0829FF001839FF00D1124E15F61
:10173000FB4F8381981708F050C0809147042381A4
:1017400090E0019630E0821793070CF044C085ECDE
:101750008093BC0051C08091B900887F883101F12D
:1017600028F4883059F0803149F046C08832C1F001
:101770008033C1F1803209F03FC00DC010924704A0
:1017800087E0829FF001839FF00D1124E15FFB4F02
:101790008281880F1EC00480F581E02D81E026C083
:1017A00087E0829FF001839FF00D1124E15FFB4FE2
:1017B000938180914704891780F40190F081E02D96
:1017C0008091470491E0980F90934704E80FF11D32
:1017D00080818093BB0085E8BBCF0480F581E02D3C
:1017E000108205C00480F581E02D82E0808326DF31
:1017F00003C083EA93E004D2FF91EF91BF91AF91D0
:101800009F918F917F916F915F914F913F912F9118
:101810000F900FBE0F901F901895EFE0F4E011AEFF
:1018200012AE13AE10AE83E08093B80081E08093D7
:10183000B900089590914A0488E0891B08950F9398
:101840001F933FB7F89490914A04983018F03FBF27
:1018500080E044C0E091490497E09E9FF00111248C
:10186000E15FFB4F51834083E09149049E9FF0016B
:101870001124E15FFB4F6283E09149049E9FF001D8
:101880001124E15FFB4F2383E09149049E9FF00107
:101890001124E15FFB4F8683E09149049E9FF00194
:1018A0001124E15FFB4F1583048383E0F8018083FB
:1018B000809149048F5F87708093490480914A0426
:1018C0008F5F80934A0480914A04813029F41092FA
:1018D000470485EA8093BC003FBF81E01F910F91D0
:1018E00008950F931F93259A91E0909357048130A8
:1018F00061F048F0823071F0833069F582E390E066
:10190000A0E0B0E018C02D9A26C084EF91E0A0E0DE
:10191000B0E011C082E390E0A0E0B0E080934B041F
:1019200090934C04A0934D04B0934E0484EF91E047
:10193000A0E0B0E008C080934B0490934C04A093C7
:101940004D04B0934E0480934F0490935004A093A1
:101950005104B093520480915704882351F09DDBC9
:1019600000914B0410914C0420914D0430914E0491
:1019700009C093DB00914F04109150042091510451
:1019800030915204DC01CB01801B910BA20BB30BF5
:101990008093530490935404A0935504B093560439
:1019A0001F910F9108950F931F93209157046091F9
:1019B000530470915404809155049091560422234D
:1019C00091F074DB00914B0410914C0420914D0474
:1019D00030914E040617170728073907F8F41092BC
:1019E0005704259812C062DB00914F0410915004F7
:1019F0002091510430915204061717072807390720
:101A000068F481E080935704259A47DB6093530480
:101A10007093540480935504909356041F910F9132
:101A20000895009741F0FC01EF57FF4F1082319667
:101A30001082329710820895CF93DF939C01009714
:101A400099F0FC01E058FF4F808187FD0DC0D9015E
:101A5000AE57BF4F9C91E901C90FD11D68839F5FAD
:101A60009F779C938F5F8083DF91CF910895CF9371
:101A7000DF93AC010097A9F0FC01E058FF4F908183
:101A8000992381F0DA01AF57BF4F2C91EA01C20FC1
:101A9000D11D88812F5F2F772C9391509083982FA1
:101AA00001C09FEF892FDF91CF91089515BC8AB1B6
:101AB0008F798AB983EA84BD16BC82E387BD88BD6D
:101AC00010926E0084B1836084B9089518161906C7
:101AD0001CF487BD289A0895819587BD289808959C
:101AE000181619061CF488BD29980895819588BD9B
:101AF000299A08951F920F920FB60F9211242F93D7
:101B00003F934F935F936F937F938F939F93AF9385
:101B1000BF93EF93FF936091C60088E594E08CDF5C
:101B2000FF91EF91BF91AF919F918F917F916F91B5
:101B30005F914F913F912F910F900FBE0F901F908B
:101B400018951F920F920FB60F9211242F933F9367
:101B50004F935F936F937F938F939F93AF93BF93B5
:101B6000EF93FF9380915B05882331F08BED94E038
:101B70007EDF8093C60005C08091C1008F7D809379
:101B8000C100FF91EF91BF91AF919F918F917F9194
:101B90006F915F914F913F912F910F900FBE0F90DA
:101BA0001F90189586E08093C2001092C50089E1CD
:101BB0008093C400E1ECF0E08081806880838081C4
:101BC0008861808388E594E02CDF8BED94E029CF59
:101BD000CF93CFB7F89490915B0597FF05C07894A9
:101BE00090E99A95F1F7F6CF682F8BED94E024DF1A
:101BF0008091C10080628093C100CFBFCF910895D2
:101C0000CF93DF93EC018991882311F0E1DFFBCFC3
:101C1000DF91CF910895F89488E594E028DF7894D7
:101C200008958091D80490E00895F7DDBBDF3EDF92
:101C30000E943F0592D9E12CF12C00E111E420E053
:101C400030E040E450E460E070E08CE592E4A7D935
:101C500066E676E686E690ECE0D9789481E00E942C
:101C6000DA0112DC279881E03CDEE3D902D845DABC
:101C70001F99FCCFF8CF5058BB27AA270ED0B1C16F
:101C8000A2D130F0A7D120F031F49F3F11F41EF41F
:101C900097C10EF4E095E7FB64C1E92FB3D180F35F
:101CA000BA17620773078407950718F071F49EF559
:101CB000E2C10EF4E0950B2EBA2FA02D0B01B90155
:101CC00090010C01CA01A0011124FF27591B99F0B2
:101CD000593F50F4503E68F11A16F040A22F232FBE
:101CE000342F4427585FF3CF469537952795A7950E
:101CF000F0405395C9F77EF41F16BA0B620B730BB5
:101D0000840BBAF09150A1F0FF0FBB1F661F771F25
:101D1000881FC2F70EC0BA0F621F731F841F48F4DA
:101D2000879577956795B795F7959E3F08F0B3CF60
:101D30009395880F08F09927EE0F9795879508954A
:101D4000ECD008F481E008950CD04BC143D140F0B1
:101D50003AD130F021F45F3F19F003C151118CC129
:101D60002FC150D198F39923C9F35523B1F3951B93
:101D7000550BBB27AA2762177307840738F09F5FAC
:101D80005F4F220F331F441FAA1FA9F333D00E2E1B
:101D90003AF0E0E830D091505040E695001CCAF788
:101DA00029D0FE2F27D0660F771F881FBB1F26174D
:101DB00037074807AB07B0E809F0BB0B802DBF0120
:101DC000FF2793585F4F2AF09E3F510568F0C9C026
:101DD00053C15F3FECF3983EDCF3869577956795AA
:101DE000B795F7959F5FC9F7880F911D96958795D1
:101DF00097F90895E1E0660F771F881FBB1F6217F0
:101E000073078407BA0720F0621B730B840BBA0BAD
:101E1000EE1F88F7E095089504D06894B1112CC1A5
:101E20000895F8D088F09F5790F0B92F9927B751AF
:101E3000A0F0D1F0660F771F881F991F1AF0BA958E
:101E4000C9F712C0B13081F016D1B1E0089513C1C5
:101E5000672F782F8827B85F39F0B93FCCF3869584
:101E600077956795B395D9F73EF4909580957095E1
:101E700061957F4F8F4F9F4F0895E89409C097FB5E
:101E80003EF490958095709561957F4F8F4F9F4F51
:101E90009923A9F0F92F96E9BB279395F695879595
:101EA00077956795B795F111F8CFFAF4BB0F11F458
:101EB00060FF1BC06F5F7F4F8F4F9F4F16C08823FF
:101EC00011F096E911C0772321F09EE8872F762F35
:101ED00005C0662371F096E8862F70E060E02AF076
:101EE0009A95660F771F881FDAF7880F9695879562
:101EF00097F90895A9D080F09F3740F491110EF022
:101F0000BBC060E070E080E89FEB089526F41B16EC
:101F1000611D711D811D2BC045C0990F0008550F13
:101F2000AA0BE0E8FEEF16161706E807F907C0F05F
:101F300012161306E407F50798F0621B730B840B67
:101F4000950B39F40A2661F0232B242B252B21F441
:101F500008950A2609F4A140A6958FEF811D811DE1
:101F6000089597F99F6780E870E060E008958823FE
:101F700071F4772321F09850872B762F07C06623C2
:101F800011F499270DC09051862B70E060E02AF083
:101F90009A95660F771F881FDAF7880F96958795B1
:101FA00097F908959F3F31F0915020F487957795E8
:101FB0006795B795880F911D9695879597F9089520
:101FC0009FEF80EC089500240A9416161706180651
:101FD0000906089500240A9412161306140605062D
:101FE0000895092E0394000C11F4882352F0BB0FBE
:101FF00040F4BF2B11F460FF04C06F5F7F4F8F4F21
:102000009F4F089557FD9058440F551F59F05F3F5B
:1020100071F04795880F97FB991F61F09F3F79F00A
:1020200087950895121613061406551FF2CF46958C
:10203000F1DF08C0161617061806991FF1CF86950E
:102040007105610508940895E5DFA0F0BEE7B917B2
:1020500088F4BB279F3860F41616B11D672F782FC0
:102060008827985FF7CF869577956795B11D9395EB
:102070009639C8F30895E894BB2766277727CB01E4
:1020800097F908954ADF08F48FEF08950BD0A9CF90
:102090009ADF28F09FDF18F0952309F062CF90CFE8
:1020A0001124EACFAFDFA0F3959FD1F3950F50E055
:1020B000551F629FF001729FBB27F00DB11D639FFA
:1020C000AA27F00DB11DAA1F649F6627B00DA11DA0
:1020D000661F829F2227B00DA11D621F739FB00D46
:1020E000A11D621F839FA00D611D221F749F3327B6
:1020F000A00D611D231F849F600D211D822F762F4F
:102100006A2F11249F5750408AF0E1F088234AF04B
:10211000EE0FFF1FBB1F661F771F881F9150504097
:10212000A9F79E3F510570F01CCFA6CF5F3FECF39F
:10213000983EDCF3869577956795B795F795E79583
:102140009F5FC1F7FE2B880F911D9695879597F994
:10215000089597FB072E16F4009406D077FD08D05B
:102160000BD007FC05D03EF4909581959F4F0895C4
:10217000709561957F4F0895AA1BBB1B51E107C065
:10218000AA1FBB1FA617B70710F0A61BB70B881F07
:10219000991F5A95A9F780959095BC01CD01089596
:0421A000F894FFCFE1
:1021A40064646464351A63616C207379733D2564D7
:1021B4000A0063616C206779726F3D25640A0063CD
:1021C400616C206163633D25640A0063616C206D6A
:1021D40061673D25640A003D3D3D3D3D3D3D3D3D3E
:1021E4003D3D3D0A0D00783D25660A0D00793D25EB
:1021F400660A0D007A3D25660A0D00635F733D256E
:10220400640A0D00635F673D25640A0D00635F6126
:102214003D25640A0D00635F6D3D25640A0D00428F
:102224004E4F3A204661696C656420746F20726574
:10223400616420646174610D0A003D3D20424E4F8B
:10224400303535205465737420313A205265616409
:10225400203D3D0A0057726974696E672072656794
:1022640020616464726573730A005461736B206146
:102274006464656420746F2071756575650A004631
:1022840061696C656420746F2061646420746F20DC
:1022940071756575650A00444F4E450A004932431D
:1022A4003A204E41434B0A004932433A205752499F
:1022B4005445204E41434B0A0052656164696E6780
:1022C400207265672076616C7565202E2E20005281
:1022D400572053554343455353210A0043686563CC
:1022E4006B2056616C7565202E2E20004641494CAA
:1022F4003D25780A00203D3D20424E4F3A2054654A
:1023040073742032203D3D0A0049324320657272C5
:102314006F723D25640A004641494C2076616C3D4C
:1023240025780A00424E4F3A20696E69740A0042C9
:102334004E4F3A204F4B0A002564203D3D20256432
:102344000A00256420213D2025640A006F6B007378
:10235400747265616D5F6F6E0073747265616D5F39
:102364006F66660073747265616D696E67206F666F
:1023740066210D0A006563686F0063616C69620021
:1023840043616C6962207361766564210D0A0049BA
:102394006E76616C696420636D64210054657374A6
:1023A40020313A20416E6120617265206D6572654D
:1023B400210D0A005465737420323A20416E612065
:1023C400617265202564206D657265210D0A0054D3
:1023D40065737420333A20416E6120617265202553
:1023E40064206D65726520534920256420706572F0
:1023F40065210D0A005465737420343A20416E61DE
:1024040020617265202578206D6572650D0A00547F
:1024140065737420353A20416E6120617265202510
:1024240066206D6572650D0A005465737420363A32
:1024340020416E6120617265202566206D6572659C
:102444000D0A004932435F4552523A6E6F2074615F
:06245400736B210A000079
:00000001FF
